:020000040000FA
:100000000C9462000C9494040C946D040C948A007B
:100010000C948A000C948A000C948A000C948A0038
:100020000C948A000C948A000C948A000C948A0028
:100030000C948A000C948A000C948A000C948A0018
:100040000C9423040C948A000C94E1040C94BB04DB
:100050000C948A000C948A000C948A000C948A00F8
:100060000C948A000C948A000000000024002700F1
:100070002A0000000000250028002B0000000000DE
:1000800023002600290004040404040404040202DA
:100090000202020203030303030301020408102007
:1000A0004080010204081020010204081020000012
:1000B0000008000201000003040700000000000027
:1000C0000000E60611241FBECFEFD8E0DEBFCDBF93
:1000D00011E0A0E0B1E0E2E7F3E102C005900D928B
:1000E000A636B107D9F722E0A6E6B1E001C01D921D
:1000F000A031B207E1F710E0C2E6D0E004C02197DA
:10010000FE010E94B109C136D107C9F70E9413054B
:100110000C94B7090C940000833081F028F48130EE
:1001200099F08230A9F008958730A9F08830C9F09D
:100130008430B1F4809180008F7D03C08091800075
:100140008F7780938000089584B58F7784BD08955C
:1001500084B58F7DFBCF8091B0008F778093B00006
:1001600008958091B0008F7DF9CFCF93DF93282F32
:1001700030E0F901E255FF4F8491F901E656FF4F57
:10018000D491F901EA57FF4FC491CC23A1F081111A
:100190000E948C00EC2FF0E0EE0FFF1FE458FF4FA1
:1001A000A591B491EC91ED2381E090E009F480E019
:1001B000DF91CF91089580E090E0FACF1F93CF9325
:1001C000DF93282F30E0F901E255FF4F8491F901C8
:1001D000E656FF4FD491F901EA57FF4FC491CC2363
:1001E000A9F0162F81110E948C00EC2FF0E0EE0F89
:1001F000FF1FEE58FF4FA591B4918FB7F894EC9183
:10020000111108C0D095DE23DC938FBFDF91CF9111
:100210001F910895DE2BF8CFCF93DF9390E0FC0180
:10022000E656FF4F24918A579F4FFC018491882303
:10023000D1F090E0880F991FFC01E859FF4FA5917C
:10024000B491FC01EE58FF4FC591D49161110EC0DD
:100250009FB7F8948C91E22FE0958E238C932881A0
:10026000E223E8839FBFDF91CF9108958FB7F89481
:10027000EC91E22BEC938FBFF6CFCF93DF93EC01A1
:1002800061E089E00E940C01209731F460E089E090
:10029000DF91CF910C94DE00CF3FD10511F461E0E6
:1002A000F6CFE7EBF0E0E491E33029F140F4E13000
:1002B000B1F0E230D9F0C038D1058CF7E7CFE730A4
:1002C00021F1E83051F1E430B1F780918000806293
:1002D00080938000D0938B00C0938A0004C084B5C3
:1002E000806884BDC7BDDF91CF91089584B58062D9
:1002F00084BDC8BDF8CF8091800080688093800065
:10030000D0938900C0938800EECF8091B0008068C0
:100310008093B000C093B300E6CF8091B0008062BC
:100320008093B000C093B400DECF3FB7F8948091C3
:100330006F0190917001A0917101B091720126B589
:10034000A89B05C02F3F19F00196A11DB11D3FBF0D
:10035000BA2FA92F982F8827BC01CD01620F711DDC
:10036000811D911D42E0660F771F881F991F4A95D6
:10037000D1F708950895AF92BF92CF92DF92EF9296
:10038000FF920F931F93CF93DF936C017B018B013F
:10039000040F151FEB015E01AE18BF08C017D1078F
:1003A00059F06991D601ED91FC910190F081E02D19
:1003B000C6010995892B79F7C501DF91CF911F916E
:1003C0000F91FF90EF90DF90CF90BF90AF90089586
:1003D000FC01538D448D252F30E0842F90E0821B4B
:1003E000930B541710F0CF96089501970895FC01D0
:1003F000918D828D981761F0A28DAE0FBF2FB11D28
:100400005D968C91928D9F5F9F73928F90E008957F
:100410008FEF9FEF0895FC01918D828D981731F039
:10042000828DE80FF11D858D90E008958FEF9FEF8D
:100430000895FC01918D228D892F90E0805C9F4F63
:10044000821B91098F739927089583E791E00E9499
:10045000190221E0892B09F420E0822F089580E021
:1004600090E0892B29F00E94250281110C94000054
:100470000895FC01A48DA80FB92FB11DA35ABF4F39
:100480002C91848D90E001968F739927848FA68993
:10049000B7892C93A089B1898C91837080648C93E7
:1004A000938D848D981306C00288F389E02D808196
:1004B0008F7D80830895EF92FF920F931F93CF93C8
:1004C000DF93EC0181E0888F9B8D8C8D98131AC08F
:1004D000E889F989808185FF15C09FB7F894EE8976
:1004E000FF896083E889F9898081837080648083D3
:1004F0009FBF81E090E0DF91CF911F910F91FF901E
:10050000EF900895F62E0B8D10E00F5F1F4F0F73C5
:100510001127E02E8C8D8E110CC00FB607FCFACF80
:10052000E889F989808185FFF5CFCE010E943902E3
:10053000F1CFEB8DEC0FFD2FF11DE35AFF4FF08251
:100540009FB7F8940B8FEA89FB8980818062CFCFB7
:10055000CF93DF93EC01888D8823B9F0AA89BB89FA
:10056000E889F9898C9185FD03C0808186FD0DC0E5
:100570000FB607FCF7CF8C9185FFF2CF808185FF06
:10058000EDCFCE010E943902E9CFDF91CF910895DE
:10059000CF93DF938FE00E94B500EC0180E10E94D1
:1005A000B500C817D907B1F4809166019091670131
:1005B000A0916801B09169010196A11DB11D8093C0
:1005C000660190936701A0936801B0936901DF9180
:1005D000CF9108958091660190916701A091680183
:1005E000B09169010197A109B109E9CFFC0101901E
:1005F0000020E9F73197AF01481B590BBC0183E795
:1006000091E00C94BB018F929F92AF92BF920F9397
:100610001F93CF93DF93CDB7DEB7A1970FB6F894B2
:10062000DEBF0FBECDBF19A2423008F44AE08E01F2
:100630000F5D1F4F842E912CB12CA12CA50194018C
:100640000E943D07E62FB901CA01EA30F4F4E05DEB
:10065000D801EE938D01232B242B252B79F790E0E5
:1006600080E0109719F0CD010E94F602A1960FB616
:10067000F894DEBF0FBECDBFDF91CF911F910F91D8
:10068000BF90AF909F908F900895E95CE1CF4F921B
:100690005F926F927F928F929F92AF92BF92CF9212
:1006A000DF92EF92FF920F931F93CF936B017C0128
:1006B000742EAC019B010E94AC09882399F086E15D
:1006C00091E0CF911F910F91FF90EF90DF90CF902D
:1006D000BF90AF909F908F907F906F905F904F9062
:1006E0000C94F60246015701E894B7F82FEF3FEF5C
:1006F0004FE75FE7C501B4010E94AC0981110DC04D
:100700002FEF3FEF4FE75FE7C501B4010E94DB0722
:1007100018161CF48AE191E0D4CF2FEF3FEF4FE79A
:100720005FE4C701B6010E943A0918161CF48EE175
:1007300091E0C7CF2FEF3FEF4FE75FECC701B60166
:100740000E94DB0787FDF3CF20E030E0A901C7015D
:10075000B6010E94DB0710E000E087FF0AC06DE2EF
:1007600083E791E00E945B028C01F7FAF094F7F8BE
:10077000F094C0E060E070E080E09FE37C1641F020
:1007800020E030E040E251E40E94E007CF5FF6CF86
:10079000A70196010E946F072B013C010E94590896
:1007A0004B015C014AE00E9403037C01E00EF11E54
:1007B000CC23C1F1C501B4010E9488089B01AC01A2
:1007C000C301B2010E946E074B015C016EE283E738
:1007D00091E00E945B02E80EF91EC15018F120E082
:1007E00030E040E251E4C501B4010E943F092B0111
:1007F0003C010E9459084B01B12CA12C4AE0C501D3
:10080000B4010E940303E80EF91EC501B4010E9461
:1008100088089B01AC01C301B2010E946E074B0125
:100820005C01DBCFC701CF911F910F91FF90EF903B
:10083000DF90CF90BF90AF909F908F907F906F9000
:100840005F904F9008951F920F920FB60F92112450
:100850002F933F938F939F93AF93BF9380916B019F
:1008600090916C01A0916D01B0916E0130916A017F
:1008700023E0230F2D3758F50196A11DB11D2093BC
:100880006A0180936B0190936C01A0936D01B0930A
:100890006E0180916F0190917001A0917101B091F2
:1008A00072010196A11DB11D80936F01909370019B
:1008B000A0937101B0937201BF91AF919F918F91FD
:1008C0003F912F910F900FBE0F901F90189526E823
:1008D000230F0296A11DB11DD2CF1F920F920FB60A
:1008E0000F9211242F933F934F935F936F937F93B6
:1008F0008F939F93AF93BF93EF93FF93E091020188
:10090000F09103010995FF91EF91BF91AF919F91F4
:100910008F917F916F915F914F913F912F910F90A8
:100920000FBE0F901F9018951F920F920FB60F9247
:1009300011242F933F934F935F936F937F938F93E4
:100940009F93AF93BF93EF93FF93E0910001F091DA
:1009500001010995FF91EF91BF91AF919F918F9107
:100960007F916F915F914F913F912F910F900FBEAB
:100970000F901F9018951F920F920FB60F9211248F
:100980002F933F934F935F936F937F938F939F9397
:10099000AF93BF93EF93FF9383E791E00E943902F7
:1009A000FF91EF91BF91AF919F918F917F916F9147
:1009B0005F914F913F912F910F900FBE0F901F901D
:1009C00018951F920F920FB60F9211242F938F93A9
:1009D0009F93EF93FF93E0918301F09184018081D5
:1009E000E0918901F0918A0182FD1BC09081809184
:1009F0008C018F5F8F7320918D01821741F0E09100
:100A00008C01F0E0ED58FE4F958F80938C01FF91A3
:100A1000EF919F918F912F910F900FBE0F901F908C
:100A200018958081F4CFCF93DF9300D000D000D011
:100A3000CDB7DEB7789484B5826084BD84B581601B
:100A400084BD85B5826085BD85B5816085BD809199
:100A50006E00816080936E00109281008091810011
:100A60008260809381008091810081608093810009
:100A7000809180008160809380008091B1008460CB
:100A80008093B1008091B00081608093B00080912C
:100A90007A00846080937A0080917A0082608093EB
:100AA0007A0080917A00816080937A0080917A0048
:100AB000806880937A001092C100E0918301F091E8
:100AC000840182E08083E0917F01F09180011082B7
:100AD000E0918101F091820180E1808310928B018D
:100AE000E0918701F091880186E08083E0918501A3
:100AF000F0918601808180618083E0918501F09191
:100B00008601808188608083E0918501F091860173
:100B1000808180688083E0918501F09186018081E9
:100B20008F7D808360E081E10E940C0160E08FE0B6
:100B30000E940C0160E080E10E940C0161E089E00C
:100B40000E940C0161E088E00E940C0161E087E0F6
:100B50000E940C0113E420E0222E20E0322E10939C
:100B60007C0080917A00806480937A0080917A0082
:100B700086FDFCCF6091780070917900072E000C03
:100B8000880B990B0E948A0820E030EC4FE754E470
:100B90000E94E0072AE037ED43E25DE30E943F094F
:100BA00069837A838B839C832AEA30E74FE652E499
:100BB0000E943F092B013C0124EE34E14DE55EE348
:100BC0000E943F094B015C0120E030E0A9010E9436
:100BD0003A0920E030E04AE754E418160CF0B0C0BF
:100BE000C501B4010E943F090E945208AEE1B0E085
:100BF0009B01AC010E94320720E530E040E050E06C
:100C00000E94130727593F4F4F4F5F4F2936310539
:100C10000CF4BFC02838310514F027E830E0B901E2
:100C2000330F880B990B0E948A086B017C0120E02E
:100C300030E0A9010E943A0918160CF4BBC020E06C
:100C400030E0A901C701B6010E943A0918160CF05C
:100C50007BC020E030E04FE753E4C701B6010E94BB
:100C60003A0918160CF4A1C0C701B6010E94520837
:100C70007E836D838D819E810E943D0160E088E0CE
:100C80000E94DE0061E087E00E94DE0082E291E0E7
:100C90000E94F60242E069817A818B819C810E94E8
:100CA00047038AE391E00E94F60242E0C301B201E9
:100CB0000E94470389E491E00E94F60242E0C501E8
:100CC000B4010E9447038AE591E00E94F60242E0E7
:100CD000C701B6010E94470383E691E00E94F60235
:100CE0000E9495014B015C018AE0C82ED12CE12CB9
:100CF000F12C0E949501681979098A099B09683EBF
:100D0000734081059105A8F391E0C91AD108E10863
:100D1000F10828EE820E23E0921EA11CB11CC11422
:100D2000D104E104F10429F72114310409F417CFA7
:100D30000E942502882309F412CF0E9400000FCFE1
:100D4000C501B40190584ECF20E030E04FE753EC9E
:100D5000C701B6010E94DB0787FD22C0C701B601AB
:100D600090580E9452087E836D8320E030E0A901F4
:100D7000C701B6010E943A0918160CF47BCF8D8189
:100D80009E810E943D0161E088E00E94DE0060E0FB
:100D90007ACFC12CD12C92EDE92E92E4F92E64CFBA
:100DA0008FEF90E09E838D83E0CF8FEF90E09E8366
:100DB0008D8360CF20E030E0A901C701B6010E9419
:100DC000DB0787FF3CCF1E821D8254CFE3E7F1E0B3
:100DD0001382128288EE93E0A0E0B0E084839583D2
:100DE000A683B78388E091E09183808385EC90E0CF
:100DF0009587848784EC90E09787868780EC90E0E5
:100E0000918B808B81EC90E0938B828B82EC90E0D5
:100E1000958B848B86EC90E0978B868B118E128E4F
:100E2000138E148E0895052E97FB1EF400940E94D5
:100E30002A0757FD07D00E943D0707FC03D04EF458
:100E40000C942A0750954095309521953F4F4F4F70
:100E50005F4F089590958095709561957F4F8F4F66
:100E60009F4F08950E945F07A59F900DB49F900D1E
:100E7000A49F800D911D11240895A1E21A2EAA1B92
:100E8000BB1BFD010DC0AA1FBB1FEE1FFF1FA2173A
:100E9000B307E407F50720F0A21BB30BE40BF50B37
:100EA000661F771F881F991F1A9469F760957095C0
:100EB000809590959B01AC01BD01CF010895A29F43
:100EC000B001B39FC001A39F700D811D1124911D1E
:100ED000B29F700D811D1124911D08955058BB279C
:100EE000AA270E9486070C9400090E94F20838F095
:100EF0000E94F90820F039F49F3F19F426F40C946D
:100F0000EF080EF4E095E7FB0C94E908E92F0E9446
:100F1000110958F3BA17620773078407950720F081
:100F200079F4A6F50C9433090EF4E0950B2EBA2F44
:100F3000A02D0B01B90190010C01CA01A0011124DF
:100F4000FF27591B99F0593F50F4503E68F11A168B
:100F5000F040A22F232F342F4427585FF3CF46951C
:100F600037952795A795F0405395C9F77EF41F163E
:100F7000BA0B620B730B840BBAF09150A1F0FF0F08
:100F8000BB1F661F771F881FC2F70EC0BA0F621FF4
:100F9000731F841F48F4879577956795B795F795E4
:100FA0009E3F08F0B0CF9395880F08F09927EE0F79
:100FB0009795879508950E94C50808F481E00895E3
:100FC0000E94F4070C9400090E94F90858F00E944E
:100FD000F20840F029F45F3F29F00C94E908511120
:100FE0000C9434090C94EF080E94110968F39923BA
:100FF000B1F3552391F3951B550BBB27AA27621715
:101000007307840738F09F5F5F4F220F331F441F21
:10101000AA1FA9F335D00E2E3AF0E0E832D0915055
:101020005040E695001CCAF72BD0FE2F29D0660F42
:10103000771F881FBB1F261737074807AB07B0E885
:1010400009F0BB0B802DBF01FF2793585F4F3AF08B
:101050009E3F510578F00C94E9080C9434095F3FE9
:10106000E4F3983ED4F3869577956795B795F79511
:101070009F5FC9F7880F911D9695879597F90895F9
:10108000E1E0660F771F881FBB1F62177307840795
:10109000BA0720F0621B730B840BBA0BEE1F88F7A4
:1010A000E09508950E9459086894B1110C94340990
:1010B00008950E94190988F09F5798F0B92F992731
:1010C000B751B0F0E1F0660F771F881F991F1AF033
:1010D000BA95C9F714C0B13091F00E943309B1E05C
:1010E00008950C943309672F782F8827B85F39F05B
:1010F000B93FCCF3869577956795B395D9F73EF4CC
:1011000090958095709561957F4F8F4F9F4F089573
:10111000E89409C097FB3EF4909580957095619591
:101120007F4F8F4F9F4F9923A9F0F92F96E9BB2747
:101130009395F695879577956795B795F111F8CFC3
:10114000FAF4BB0F11F460FF1BC06F5F7F4F8F4F2E
:101150009F4F16C0882311F096E911C0772321F024
:101160009EE8872F762F05C0662371F096E8862FBC
:1011700070E060E02AF09A95660F771F881FDAF713
:10118000880F9695879597F90895990F0008550F40
:10119000AA0BE0E8FEEF16161706E807F907C0F0FD
:1011A00012161306E407F50798F0621B730B840B05
:1011B000950B39F40A2661F0232B242B252B21F4DF
:1011C00008950A2609F4A140A6958FEF811D811D7F
:1011D000089597F99F6780E870E060E008959FEFB9
:1011E00080EC089500240A941616170618060906BE
:1011F000089500240A94121613061406050608958D
:10120000092E0394000C11F4882352F0BB0F40F414
:10121000BF2B11F460FF04C06F5F7F4F8F4F9F4F54
:10122000089557FD9058440F551F59F05F3F71F0D6
:101230004795880F97FB991F61F09F3F79F087953D
:101240000895121613061406551FF2CF4695F1DFC6
:1012500008C0161617061806991FF1CF8695710556
:10126000610508940895E894BB2766277727CB018A
:1012700097F908950E94C50808F48FEF08950E9419
:1012800052090C9400090E94F20838F00E94F908F3
:1012900020F0952311F00C94E9080C94EF08112428
:1012A0000C9434090E94110970F3959FC1F3950FB6
:1012B00050E0551F629FF001729FBB27F00DB11DDA
:1012C000639FAA27F00DB11DAA1F649F6627B00D6A
:1012D000A11D661F829F2227B00DA11D621F739F53
:1012E000B00DA11D621F839FA00D611D221F749F61
:1012F0003327A00D611D231F849F600D211D822FA8
:10130000762F6A2F11249F5750409AF0F1F08823CE
:101310004AF0EE0FFF1FBB1F661F771F881F9150FB
:101320005040A9F79E3F510580F00C94E9080C94B9
:1013300034095F3FE4F3983ED4F38695779567953B
:10134000B795F795E7959F5FC1F7FE2B880F911D25
:101350009695879597F908950E94C508880B990B73
:101360000895EE0FFF1F0590F491E02D0994F89475
:10137000FFCFBA01BA01000000005B02BB01E80127
:10138000A8021902F7010B026E616E00696E660019
:101390006F766600537072696E67204465666C658F
:1013A0006374696F6E20286D293A2000207C2046E6
:1013B0006F72636520284E293A2000207C20546FEC
:1013C0007271756520284E6D293A2000207C2050CE
:0813D000574D3A20000D0A0000
:107E0000112484B714BE81FFF0D085E080938100F7
:107E100082E08093C00088E18093C10086E0809377
:107E2000C20080E18093C4008EE0C9D0259A86E02C
:107E300020E33CEF91E0309385002093840096BBD3
:107E4000B09BFECF1D9AA8958150A9F7CC24DD24C4
:107E500088248394B5E0AB2EA1E19A2EF3E0BF2EE7
:107E6000A2D0813461F49FD0082FAFD0023811F036
:107E7000013811F484E001C083E08DD089C08234E0
:107E800011F484E103C0853419F485E0A6D080C0E4
:107E9000853579F488D0E82EFF2485D0082F10E0AE
:107EA000102F00270E291F29000F111F8ED06801E7
:107EB0006FC0863521F484E090D080E0DECF843638
:107EC00009F040C070D06FD0082F6DD080E0C81688
:107ED00080E7D80618F4F601B7BEE895C0E0D1E017
:107EE00062D089930C17E1F7F0E0CF16F0E7DF06D8
:107EF00018F0F601B7BEE89568D007B600FCFDCFD4
:107F0000A601A0E0B1E02C9130E011968C91119780
:107F100090E0982F8827822B932B1296FA010C0160
:107F200087BEE89511244E5F5F4FF1E0A038BF0790
:107F300051F7F601A7BEE89507B600FCFDCF97BE46
:107F4000E89526C08437B1F42ED02DD0F82E2BD052
:107F50003CD0F601EF2C8F010F5F1F4F84911BD097
:107F6000EA94F801C1F70894C11CD11CFA94CF0C13
:107F7000D11C0EC0853739F428D08EE10CD085E9AC
:107F80000AD08FE07ACF813511F488E018D01DD067
:107F900080E101D065CF982F8091C00085FFFCCF94
:107FA0009093C60008958091C00087FFFCCF809118
:107FB000C00084FD01C0A8958091C6000895E0E648
:107FC000F0E098E1908380830895EDDF803219F02E
:107FD00088E0F5DFFFCF84E1DECF1F93182FE3DFCA
:107FE0001150E9F7F2DF1F91089580E0E8DFEE27F6
:047FF000FF270994CA
:027FFE00040479
:00000001FF
